{
  "contractName": "DocumentTransfer",
  "abi": [
    {
      "inputs": [],
      "payable": false,
      "stateMutability": "nonpayable",
      "type": "constructor"
    },
    {
      "constant": true,
      "inputs": [
        {
          "internalType": "address",
          "name": "",
          "type": "address"
        }
      ],
      "name": "consignees",
      "outputs": [
        {
          "internalType": "bool",
          "name": "isRegistered",
          "type": "bool"
        }
      ],
      "payable": false,
      "stateMutability": "view",
      "type": "function"
    },
    {
      "constant": true,
      "inputs": [
        {
          "internalType": "uint256",
          "name": "",
          "type": "uint256"
        }
      ],
      "name": "documents",
      "outputs": [
        {
          "internalType": "uint256",
          "name": "index",
          "type": "uint256"
        },
        {
          "internalType": "bytes",
          "name": "hashValue",
          "type": "bytes"
        },
        {
          "internalType": "bool",
          "name": "isChanged",
          "type": "bool"
        },
        {
          "internalType": "uint256",
          "name": "status",
          "type": "uint256"
        }
      ],
      "payable": false,
      "stateMutability": "view",
      "type": "function"
    },
    {
      "constant": true,
      "inputs": [
        {
          "internalType": "address",
          "name": "",
          "type": "address"
        }
      ],
      "name": "shippers",
      "outputs": [
        {
          "internalType": "bool",
          "name": "isRegistered",
          "type": "bool"
        }
      ],
      "payable": false,
      "stateMutability": "view",
      "type": "function"
    },
    {
      "constant": false,
      "inputs": [
        {
          "internalType": "address",
          "name": "_shipperAddress",
          "type": "address"
        }
      ],
      "name": "registerShipper",
      "outputs": [],
      "payable": false,
      "stateMutability": "nonpayable",
      "type": "function"
    },
    {
      "constant": false,
      "inputs": [
        {
          "internalType": "address",
          "name": "_consigneeAddress",
          "type": "address"
        },
        {
          "internalType": "uint256",
          "name": "_index",
          "type": "uint256"
        }
      ],
      "name": "registerConsignee",
      "outputs": [],
      "payable": false,
      "stateMutability": "nonpayable",
      "type": "function"
    },
    {
      "constant": false,
      "inputs": [
        {
          "internalType": "bytes",
          "name": "_hashValue",
          "type": "bytes"
        },
        {
          "internalType": "address",
          "name": "_consigneeAddress",
          "type": "address"
        }
      ],
      "name": "registerDoc",
      "outputs": [],
      "payable": false,
      "stateMutability": "nonpayable",
      "type": "function"
    },
    {
      "constant": false,
      "inputs": [
        {
          "internalType": "uint256",
          "name": "_index",
          "type": "uint256"
        }
      ],
      "name": "getDocHash",
      "outputs": [
        {
          "internalType": "bytes",
          "name": "",
          "type": "bytes"
        }
      ],
      "payable": false,
      "stateMutability": "nonpayable",
      "type": "function"
    },
    {
      "constant": false,
      "inputs": [
        {
          "internalType": "bytes",
          "name": "hashA",
          "type": "bytes"
        },
        {
          "internalType": "uint256",
          "name": "_index",
          "type": "uint256"
        }
      ],
      "name": "isDocSame",
      "outputs": [
        {
          "internalType": "bool",
          "name": "",
          "type": "bool"
        }
      ],
      "payable": false,
      "stateMutability": "nonpayable",
      "type": "function"
    },
    {
      "constant": false,
      "inputs": [
        {
          "internalType": "uint256",
          "name": "_index",
          "type": "uint256"
        },
        {
          "internalType": "bool",
          "name": "_result",
          "type": "bool"
        }
      ],
      "name": "setDocisChanged",
      "outputs": [],
      "payable": false,
      "stateMutability": "nonpayable",
      "type": "function"
    },
    {
      "constant": true,
      "inputs": [
        {
          "internalType": "uint256",
          "name": "_index",
          "type": "uint256"
        }
      ],
      "name": "getDocStatus",
      "outputs": [
        {
          "internalType": "uint256",
          "name": "",
          "type": "uint256"
        }
      ],
      "payable": false,
      "stateMutability": "view",
      "type": "function"
    },
    {
      "constant": true,
      "inputs": [
        {
          "internalType": "uint256",
          "name": "_index",
          "type": "uint256"
        }
      ],
      "name": "getDocisChanged",
      "outputs": [
        {
          "internalType": "bool",
          "name": "",
          "type": "bool"
        }
      ],
      "payable": false,
      "stateMutability": "view",
      "type": "function"
    },
    {
      "constant": true,
      "inputs": [],
      "name": "getShipperDocNum",
      "outputs": [
        {
          "internalType": "uint256",
          "name": "",
          "type": "uint256"
        }
      ],
      "payable": false,
      "stateMutability": "view",
      "type": "function"
    },
    {
      "constant": true,
      "inputs": [],
      "name": "getConsigneeDocNum",
      "outputs": [
        {
          "internalType": "uint256",
          "name": "",
          "type": "uint256"
        }
      ],
      "payable": false,
      "stateMutability": "view",
      "type": "function"
    },
    {
      "constant": true,
      "inputs": [
        {
          "internalType": "address",
          "name": "_shipperAddress",
          "type": "address"
        },
        {
          "internalType": "uint256",
          "name": "_index",
          "type": "uint256"
        }
      ],
      "name": "getShipperIndex",
      "outputs": [
        {
          "internalType": "uint256",
          "name": "",
          "type": "uint256"
        }
      ],
      "payable": false,
      "stateMutability": "view",
      "type": "function"
    },
    {
      "constant": true,
      "inputs": [
        {
          "internalType": "address",
          "name": "_consigneeAddress",
          "type": "address"
        },
        {
          "internalType": "uint256",
          "name": "_index",
          "type": "uint256"
        }
      ],
      "name": "getConsigneeIndex",
      "outputs": [
        {
          "internalType": "uint256",
          "name": "",
          "type": "uint256"
        }
      ],
      "payable": false,
      "stateMutability": "view",
      "type": "function"
    },
    {
      "constant": true,
      "inputs": [
        {
          "internalType": "address",
          "name": "_shipperAddress",
          "type": "address"
        }
      ],
      "name": "isRegisteredShipper",
      "outputs": [
        {
          "internalType": "bool",
          "name": "",
          "type": "bool"
        }
      ],
      "payable": false,
      "stateMutability": "view",
      "type": "function"
    },
    {
      "constant": true,
      "inputs": [
        {
          "internalType": "address",
          "name": "_consigneeAddress",
          "type": "address"
        }
      ],
      "name": "isRegisteredConsignee",
      "outputs": [
        {
          "internalType": "bool",
          "name": "",
          "type": "bool"
        }
      ],
      "payable": false,
      "stateMutability": "view",
      "type": "function"
    }
  ],
  "bytecode": "0x608060405234801561001057600080fd5b5061133b806100206000396000f3fe608060405234801561001057600080fd5b506004361061010b5760003560e01c806380afb157116100a2578063b900e87511610071578063b900e875146105f1578063c2ed2b0514610635578063d7440cb4146106f5578063f236f2bf14610751578063fae9aae0146107ad5761010b565b806380afb15714610458578063a20b77ad1461049a578063a980599714610541578063b16ec1371461058f5761010b565b80634dbf2b41116100de5780634dbf2b41146103205780634ed3959c1461038257806350ef7454146103de5780635c86bb151461043a5761010b565b806302ef41f3146101105780630d9204981461014a5780632c97336d1461016857806332d3f97214610243575b600080fd5b6101486004803603604081101561012657600080fd5b81019080803590602001909291908035151590602001909291905050506107f3565b005b61015261082d565b6040518082815260200191505060405180910390f35b6102416004803603604081101561017e57600080fd5b810190808035906020019064010000000081111561019b57600080fd5b8201836020820111156101ad57600080fd5b803590602001918460018302840111640100000000831117156101cf57600080fd5b91908080601f016020809104026020016040519081016040528093929190818152602001838380828437600081840152601f19601f820116905080830192505050505050509192919290803573ffffffffffffffffffffffffffffffffffffffff169060200190929190505050610879565b005b6103066004803603604081101561025957600080fd5b810190808035906020019064010000000081111561027657600080fd5b82018360208201111561028857600080fd5b803590602001918460018302840111640100000000831117156102aa57600080fd5b91908080601f016020809104026020016040519081016040528093929190818152602001838380828437600081840152601f19601f82011690508083019250505050505050919291929080359060200190929190505050610a6d565b604051808215151515815260200191505060405180910390f35b61036c6004803603604081101561033657600080fd5b81019080803573ffffffffffffffffffffffffffffffffffffffff16906020019092919080359060200190929190505050610a96565b6040518082815260200191505060405180910390f35b6103c46004803603602081101561039857600080fd5b81019080803573ffffffffffffffffffffffffffffffffffffffff169060200190929190505050610af7565b604051808215151515815260200191505060405180910390f35b610420600480360360208110156103f457600080fd5b81019080803573ffffffffffffffffffffffffffffffffffffffff169060200190929190505050610b22565b604051808215151515815260200191505060405180910390f35b610442610b7b565b6040518082815260200191505060405180910390f35b6104846004803603602081101561046e57600080fd5b8101908080359060200190929190505050610bc8565b6040518082815260200191505060405180910390f35b6104c6600480360360208110156104b057600080fd5b8101908080359060200190929190505050610bf0565b6040518080602001828103825283818151815260200191508051906020019080838360005b838110156105065780820151818401526020810190506104eb565b50505050905090810190601f1680156105335780820380516001836020036101000a031916815260200191505b509250505060405180910390f35b61058d6004803603604081101561055757600080fd5b81019080803573ffffffffffffffffffffffffffffffffffffffff16906020019092919080359060200190929190505050610cd3565b005b6105db600480360360408110156105a557600080fd5b81019080803573ffffffffffffffffffffffffffffffffffffffff16906020019092919080359060200190929190505050610f08565b6040518082815260200191505060405180910390f35b6106336004803603602081101561060757600080fd5b81019080803573ffffffffffffffffffffffffffffffffffffffff169060200190929190505050610f6a565b005b6106616004803603602081101561064b57600080fd5b810190808035906020019092919050505061106c565b604051808581526020018060200184151515158152602001838152602001828103825285818151815260200191508051906020019080838360005b838110156106b757808201518184015260208101905061069c565b50505050905090810190601f1680156106e45780820380516001836020036101000a031916815260200191505b509550505050505060405180910390f35b6107376004803603602081101561070b57600080fd5b81019080803573ffffffffffffffffffffffffffffffffffffffff16906020019092919050505061114e565b604051808215151515815260200191505060405180910390f35b6107936004803603602081101561076757600080fd5b81019080803573ffffffffffffffffffffffffffffffffffffffff1690602001909291905050506111a6565b604051808215151515815260200191505060405180910390f35b6107d9600480360360208110156107c357600080fd5b81019080803590602001909291905050506111d1565b604051808215151515815260200191505060405180910390f35b806002838154811061080157fe5b906000526020600020906004020160020160006101000a81548160ff0219169083151502179055505050565b60008060003373ffffffffffffffffffffffffffffffffffffffff1673ffffffffffffffffffffffffffffffffffffffff16815260200190815260200160002060000180549050905090565b6000803373ffffffffffffffffffffffffffffffffffffffff1673ffffffffffffffffffffffffffffffffffffffff16815260200190815260200160002060010160009054906101000a900460ff1661091d576040517f08c379a000000000000000000000000000000000000000000000000000000000815260040180806020018281038252603a8152602001806112cd603a913960400191505060405180910390fd5b60006002604051806080016040528060008152602001858152602001600015158152602001600181525090806001815401808255809150509060018203906000526020600020906004020160009091929091909150600082015181600001556020820151816001019080519060200190610998929190611206565b5060408201518160020160006101000a81548160ff021916908315150217905550606082015181600301555050905060018103600282815481106109d857fe5b9060005260206000209060040201600001819055506000803373ffffffffffffffffffffffffffffffffffffffff1673ffffffffffffffffffffffffffffffffffffffff168152602001908152602001600020600001600182039080600181540180825580915050906001820390600052602060002001600090919290919091505550610a688260018303610cd3565b505050565b60006060610a7a83610bf0565b9050808051906020012084805190602001201491505092915050565b60008060008473ffffffffffffffffffffffffffffffffffffffff1673ffffffffffffffffffffffffffffffffffffffff1681526020019081526020016000206000018281548110610ae457fe5b9060005260206000200154905092915050565b60006020528060005260406000206000915090508060010160009054906101000a900460ff16905081565b6000600160008373ffffffffffffffffffffffffffffffffffffffff1673ffffffffffffffffffffffffffffffffffffffff16815260200190815260200160002060010160009054906101000a900460ff169050919050565b6000600160003373ffffffffffffffffffffffffffffffffffffffff1673ffffffffffffffffffffffffffffffffffffffff16815260200190815260200160002060000180549050905090565b600060028281548110610bd757fe5b9060005260206000209060040201600301549050919050565b60606002808381548110610c0057fe5b90600052602060002090600402016003018190555060028281548110610c2257fe5b90600052602060002090600402016001018054600181600116156101000203166002900480601f016020809104026020016040519081016040528092919081815260200182805460018160011615610100020316600290048015610cc75780601f10610c9c57610100808354040283529160200191610cc7565b820191906000526020600020905b815481529060010190602001808311610caa57829003601f168201915b50505050509050919050565b6000803373ffffffffffffffffffffffffffffffffffffffff1673ffffffffffffffffffffffffffffffffffffffff16815260200190815260200160002060010160009054906101000a900460ff16610d77576040517f08c379a000000000000000000000000000000000000000000000000000000000815260040180806020018281038252603a8152602001806112cd603a913960400191505060405180910390fd5b600160008373ffffffffffffffffffffffffffffffffffffffff1673ffffffffffffffffffffffffffffffffffffffff16815260200190815260200160002060010160009054906101000a900460ff1615610e3d57600160008373ffffffffffffffffffffffffffffffffffffffff1673ffffffffffffffffffffffffffffffffffffffff168152602001908152602001600020600001819080600181540180825580915050906001820390600052602060002001600090919290919091505550610f04565b600160008373ffffffffffffffffffffffffffffffffffffffff1673ffffffffffffffffffffffffffffffffffffffff16815260200190815260200160002060000181908060018154018082558091505090600182039060005260206000200160009091929091909150555060018060008473ffffffffffffffffffffffffffffffffffffffff1673ffffffffffffffffffffffffffffffffffffffff16815260200190815260200160002060010160006101000a81548160ff0219169083151502179055505b5050565b6000600160008473ffffffffffffffffffffffffffffffffffffffff1673ffffffffffffffffffffffffffffffffffffffff1681526020019081526020016000206000018281548110610f5757fe5b9060005260206000200154905092915050565b6000808273ffffffffffffffffffffffffffffffffffffffff1673ffffffffffffffffffffffffffffffffffffffff16815260200190815260200160002060010160009054906101000a900460ff161561100f576040517f08c379a00000000000000000000000000000000000000000000000000000000081526004018080602001828103825260218152602001806112ac6021913960400191505060405180910390fd5b60016000808373ffffffffffffffffffffffffffffffffffffffff1673ffffffffffffffffffffffffffffffffffffffff16815260200190815260200160002060010160006101000a81548160ff02191690831515021790555050565b6002818154811061107957fe5b9060005260206000209060040201600091509050806000015490806001018054600181600116156101000203166002900480601f01602080910402602001604051908101604052809291908181526020018280546001816001161561010002031660029004801561112b5780601f106111005761010080835404028352916020019161112b565b820191906000526020600020905b81548152906001019060200180831161110e57829003601f168201915b5050505050908060020160009054906101000a900460ff16908060030154905084565b60008060008373ffffffffffffffffffffffffffffffffffffffff1673ffffffffffffffffffffffffffffffffffffffff16815260200190815260200160002060010160009054906101000a900460ff169050919050565b60016020528060005260406000206000915090508060010160009054906101000a900460ff16905081565b6000600282815481106111e057fe5b906000526020600020906004020160020160009054906101000a900460ff169050919050565b828054600181600116156101000203166002900490600052602060002090601f016020900481019282601f1061124757805160ff1916838001178555611275565b82800160010185558215611275579182015b82811115611274578251825591602001919060010190611259565b5b5090506112829190611286565b5090565b6112a891905b808211156112a457600081600090555060010161128c565b5090565b9056fe746865207368697070657220697320616c726561647920726567697374657265647468652063616c6c6572206f6620746869732066756e6374696f6e206d7573742062652061207265676973746572656420436f6e7369676e6565a265627a7a7231582052c4d59ffca86c29f1710eb45273cb112719ba0e4b7532157c5683cf19336e5164736f6c63430005100032",
  "source": "pragma solidity ^0.5.16;\n\ncontract DocumentTransfer {\n    struct Shipper {\n        uint [] DocuIndex; \n        bool isRegistered;\n    }\n\n    struct Consignee {\n        uint [] DocuIndex;\n        bool isRegistered;\n    }       \n    \n    struct Document {\n        uint index;\n        bytes hashValue; \n        bool isChanged; \n        uint status;\n    }                                                                                               \n\n    modifier onlyRegisteredShipper() { \n        require(shippers[msg.sender].isRegistered, \n           \"the caller of this function must be a registered Consignee\");\n       _;\n    }\n\n    modifier onlyRegisteredConsignee() { \n        require(consignees[msg.sender].isRegistered, \n           \"the caller of this function must be a registered Consignee\");\n       _;\n    }\n\n    mapping(address => Shipper) public shippers;\n    mapping(address => Consignee) public consignees;\n    Document [] public documents; \n\n    constructor() public { }   \n\n    function registerShipper(address _shipperAddress) \n        public {\n        require(!shippers[ _shipperAddress].isRegistered, \"the shipper is already registered\");\n        shippers[ _shipperAddress].isRegistered = true;\n    }\n    \n    function registerConsignee(address _consigneeAddress, uint _index) \n        public onlyRegisteredShipper {\n        if (consignees[ _consigneeAddress].isRegistered){\n            consignees[ _consigneeAddress].DocuIndex.push(_index);\n        } else {\n            consignees[ _consigneeAddress].DocuIndex.push(_index);\n            consignees[ _consigneeAddress].isRegistered = true;\n        }\n        \n    } \n\n    function registerDoc( bytes memory _hashValue, address _consigneeAddress) public onlyRegisteredShipper {\n        uint _index = \n        documents.push(Document({\n            index : 0,\n            hashValue: _hashValue,\n            isChanged:  false,\n            status : 1\n            }));\n        documents[_index].index = _index-1;\n        shippers[msg.sender].DocuIndex.push(_index -1);\n        registerConsignee(_consigneeAddress, _index-1);\n    }\n\n    function getDocHash(uint _index) public\n        returns (bytes memory) {\n        documents[_index].status = 2;\n        return documents[_index].hashValue;\n    }\n\n    function isDocSame(bytes memory hashA, uint _index) public\n        returns (bool) {\n        bytes memory hashB = getDocHash(_index);\n        return keccak256(hashA) == keccak256(hashB);\n    }\n\n    function setDocisChanged(uint _index, bool _result) public\n    {\n        documents[_index].isChanged = _result;\n    }\n\n    function getDocStatus(uint _index) public view\n\t    returns (uint) {\n\t    return documents[_index].status;\n\t}\n\n    function getDocisChanged(uint _index) public view\n\t    returns (bool) {\n\t    return documents[_index].isChanged;\n\t}\n\n    function getShipperDocNum() public view\n\t    returns (uint) {\n\t    return shippers[msg.sender].DocuIndex.length;\n\t}\n\n    function getConsigneeDocNum() public view\n\t    returns (uint) {\n\t    return consignees[msg.sender].DocuIndex.length;\n\t}\n\n    function getShipperIndex(address _shipperAddress, uint _index) public view\n\t    returns (uint) {\n            return shippers[_shipperAddress].DocuIndex[_index];\n\t}\n\n    function getConsigneeIndex(address _consigneeAddress, uint _index) public view\n\t    returns (uint) {\n            return consignees[_consigneeAddress].DocuIndex[_index];\n\t}\n\n    function isRegisteredShipper(address _shipperAddress) public view\n\t   returns (bool) {\n\t   return shippers[_shipperAddress].isRegistered;\n\t}\n\n    function isRegisteredConsignee(address _consigneeAddress) public view\n\t   returns (bool) {\n\t   return consignees[_consigneeAddress].isRegistered;\n\t}\n\n\n}\n\n",
  "sourcePath": "/home/ubuntu/truffle/contracts/DocumentTransfer.sol",
  "compiler": {
    "name": "solc",
    "version": "0.5.16+commit.9c3226ce.Emscripten.clang"
  },
  "schemaVersion": "3.4.3",
  "updatedAt": "2021-11-05T16:42:18.800Z",
  "networkType": "ethereum",
  "devdoc": {
    "methods": {}
  },
  "userdoc": {
    "methods": {}
  }
}